:100000000C9464000C948C000C948C000C948C0068
:100010000C948C000C948C000C948C000C948C0030
:100020000C948C000C948C000C948C000C948C0020
:100030000C948C000C948C000C948C000C948C0010
:100040000C946D030C948C000C941C060C944D06BF
:100050000C948C000C948C000C948C000C948C00F0
:100060000C948C000C948C000000000024002700ED
:100070002A0000000000250028002B0000000000DE
:1000800023002600290004040404040404040202DA
:100090000202020203030303030301020408102007
:1000A0004080010204081020010204081020000012
:1000B0000007000201000003040600000000000029
:1000C000000063031207680311241FBECFEFD8E0BE
:1000D000DEBFCDBF11E0A0E0B1E0ECE4F4E102C08E
:1000E00005900D92AE37B107D9F712E0AEE7B1E057
:1000F00001C01D92A434B107E1F710E0C6ECD0E0D6
:1001000004C02297FE010E94150AC23CD107C9F71C
:100110000E94BA070C9456090C940000009711F045
:100120000E94A7078DE061E00E9474048DE061E009
:100130000E9498046AEF70E080E090E00E94DB0388
:100140008DE060E00E9498046AEF70E080E090E04B
:100150000E94DB03EBCF009711F00E94A7078DE010
:1001600061E00E9474048DE061E00E9498046AEFEF
:1001700070E080E090E00E94DB038DE060E00E9490
:1001800098046AEF70E080E090E00E94DB03EBCF20
:1001900081E292E040E052EC61E070E00E9494065F
:1001A00080E190E00E94CF0780937E0190937F01D1
:1001B0008AE290E00E944B090895FA01E20FF31FD2
:1001C000608360708070907024E096958795779535
:1001D00067952A95D1F7618308950F931F93082F90
:1001E000162F61E00E947404802F60E00E94980442
:1001F00082E090E00E940204802F61E00E94980457
:100200008AE090E00E940204802F60E00E9498043F
:10021000812F60E00E947404812F61E020E432E4C9
:100220004FE050E00E94D00424E930E040E050E08C
:100230000E94C109B901CA011F910F910895EF925F
:10024000FF920F931F9379018A01E0917E01F09153
:100250007F011082E0917E01F0917F012FEF2183D9
:1002600040917E0150917F0122E030E00E94DD004C
:1002700040917E0150917F01C801B70124E030E038
:100280000E94DD0040917E0150917F01C801B701BD
:1002900026E030E00E94DD0040917E0150917F0118
:1002A000C801B70128E030E00E94DD0040917E01E6
:1002B00050917F01C801B7012AE030E00E94DD00C3
:1002C00040917E0150917F01C801B7012CE030E0E0
:1002D0000E94DD00E0917E01F0917F018EEE868725
:1002E000E0917E01F0917F01178660917E0170910F
:1002F0007F0181E292E040E150E00E944F071F91B0
:100300000F91FF90EF900895CF92DF92EF92FF92BE
:100310000F931F93DF93CF9300D0CDB7DEB76C015F
:10032000DC0114968D919C911597009731F48D9175
:100330009C9160E071E00E948E00D6011496ED91D0
:10034000FC91159760817181E280F38004811581B1
:10035000CF0169837A830E94CC07F6011583048359
:1003600022813381215030403383228369817A8115
:10037000C7010F900F90CF91DF911F910F91FF90C8
:10038000EF90DF90CF900895EF92FF920F931F931D
:10039000DF93CF93CDB7DEB768970FB6F894DEBF83
:1003A0000FBECDBF81E292E00E949305FE0131961F
:1003B00028E1DF011D922A95E9F78F3F9105E9F4C5
:1003C00081E080936D018F0135E1E32EF12CEC0E7D
:1003D000FD1E8091840190918501009709F10E1511
:1003E0001F05F1F080E891E00E948401F80161931B
:1003F0007193819391938F01ECCF81E292E06EEE45
:100400000E94C90510926D0104C080E891E00E942D
:10041000840180918401909185010097B1F70CC00F
:1004200069817A818B819C812D813E814F815885A4
:1004300001E010E00E941F0168960FB6F894DEBF3D
:100440000FBECDBFCF91DF911F910F91FF90EF9025
:100450000895EF92FF920F931F93CF93DF93EC01D8
:100460008B01EE80FF8084E090E00E94C9079F83AB
:100470008E83009731F48881998162E371E00E9454
:10048000AB00EE81FF8113821282118300838C8185
:100490009D81009719F4FD83EC8305C0D701139665
:1004A000FC93EE9312978A819B8101969B838A83AA
:1004B000DF91CF911F910F91FF90EF900895EF92F0
:1004C000FF920F931F93CF93DF93EC018C819D815B
:1004D000009731F48881998160E071E00E94AB005F
:1004E000EC81FD81E080F18002811381CF010E94C7
:1004F000CC071D830C832A813B81215030403B83F4
:100500002A83C701DF91CF911F910F91FF90EF9048
:100510000895CF92DF92EF92FF920F931F93CF93A4
:10052000DF93EC017A018B01CE80DF8086E090E0E2
:100530000E94C9079F838E83009731F48881998137
:1005400062E371E00E948E00EE81FF8115821482C9
:10055000E082F182028313838C819D81009719F4DC
:10056000FD83EC8305C0D6011596FC93EE9314979A
:100570008A819B8101969B838A83DF91CF911F9112
:100580000F91FF90EF90DF90CF90089580916D01D3
:10059000882359F188E190E00E94CF07BC0188E8E8
:1005A00091E00E94290288E891E00E945F0282E0C7
:1005B00090E064E070E00E94ED00AB01BC0180E8D7
:1005C00091E00E9489028CE090E068E070E00E9477
:1005D000ED00AB01BC0180E891E00E94890262E37A
:1005E00070E080E090E00E94DB0308950F931F937A
:1005F000CF93DF93EC010C811D8109C08C819D811B
:10060000FC01028113810E94CC071D830C8301151C
:100610001105A1F71B821A821F821E82198218827D
:10062000DF91CF911F910F9108950F931F93CF9357
:10063000DF93EC010C811D8109C08C819D81FC013F
:10064000048115810E94CC071D830C8301151105BF
:10065000A1F71B821A821F821E8219821882DF91E3
:10066000CF911F910F9108958130910509F5109256
:1006700083011092820110928501109284011092E0
:1006800087011092860110928101109280011092D0
:100690008B0110928A0110928D0110928C011092A0
:1006A0008F0110928E011092890110928801089595
:1006B000009741F488E891E00E94F60280E891E01A
:1006C0000E941503089581E090E00E94340308958C
:1006D00080E090E00E94340308951F920F920FB6BD
:1006E0000F9211242F933F938F939F93AF93BF93B8
:1006F0008091940190919501A0919601B0919701FC
:10070000309198010196A11DB11D232F2D5F2D372A
:1007100020F02D570196A11DB11D209398018093C3
:10072000940190939501A0939601B09397018091C5
:10073000900190919101A0919201B0919301019645
:10074000A11DB11D8093900190939101A0939201FE
:10075000B0939301BF91AF919F918F913F912F9152
:100760000F900FBE0F901F9018959FB7F89420918F
:10077000900130919101409192015091930186B581
:10078000A89B06C08F3F21F02F5F3F4F4F4F5F4F19
:100790009FBF542F432F322F2227280F311D411D79
:1007A000511D82E0220F331F441F551F8A95D1F738
:1007B000B901CA010895EF92FF920F931F93CF934F
:1007C000DF937B018C010E94B503EB010FC00E94F7
:1007D000B5036C1B7D0B83E0683E780738F0089406
:1007E000E108F10801091109C851DC4FE114F104D5
:1007F0000105110561F7DF91CF911F910F91FF90D6
:10080000EF900895019739F0880F991F880F991F6D
:1008100002970197F1F70895789484B5826084BDBA
:1008200084B5816084BD85B5826085BD85B58160F4
:1008300085BDEEE6F0E0808181608083E1E8F0E054
:100840001082808182608083808181608083E0E883
:10085000F0E0808181608083E1EBF0E08081846062
:100860008083E0EBF0E0808181608083EAE7F0E064
:1008700080818460808380818260808380818160C8
:1008800080838081806880831092C10008958330C6
:1008900071F0843028F48130A1F0823021F514C049
:1008A0008630B1F08730D1F08430E9F404C0809113
:1008B00080008F7703C0809180008F7D80938000BF
:1008C000089584B58F7702C084B58F7D84BD089567
:1008D0008091B0008F778093B00008958091B00030
:1008E0008F7D8093B000089590E0FC01E656FF4FA5
:1008F0002491FC01EA57FF4FE491EE23C1F0F0E0B0
:10090000EE0FFF1FE859FF4F85919491DC0166239C
:1009100041F49FB7F8948C91209582238C939FBFCC
:1009200008959FB7F8948C91822B8C939FBF089564
:100930000F931F93DF93CF930F92CDB7DEB7282F7E
:1009400030E0F901E255FF4F8491F901E656FF4F7F
:1009500014912A573F4FF90104910023D9F08823BD
:1009600021F069830E9447046981E02FF0E0EE0FD7
:10097000FF1FEE58FF4F85919491DC019FB7F894CB
:10098000662321F48C911095812302C08C91812BD8
:100990008C939FBF0F90CF91DF911F910F9108957E
:1009A0008F929F92AF92BF92CF92DF92EF92FF927F
:1009B0000F931F9390E0FC01E656FF4F94908A57E7
:1009C0009F4FFC01E490662311F4882401C0892C18
:1009D000CA01B90120E83EE340E050E00E94590915
:1009E0000E949F0959016A0180E090E0DC016E2DB0
:1009F00070E0FB01EE0FFF1FE458FF4F259134918B
:100A000009C08A159B05AC05BD0509F44DC00196CA
:100A1000A11DB11DF90140814921481591F30AC07A
:100A20008A159B05AC05BD0509F43EC00196A11DC4
:100A3000B11D07C0660F771F64587F4FFB012591DA
:100A40003491F90140814921481551F720E030E007
:100A5000A901FB01659174910FC079018A01E80E2B
:100A6000F91E0A1F1B1FEA14FB040C051D05E1F00B
:100A70002F5F3F4F4F4F5F4FFB01E081E921E815AA
:100A800061F3CA01B90128E032E540E050E00E947C
:100A900059096058714C8F4F9F4F20E83EE340E06A
:100AA00050E00E949F0903C020E030E0A901B90195
:100AB000CA011F910F91FF90EF90DF90CF90BF90F0
:100AC000AF909F908F900895FC0184859585FC01DF
:100AD000E05CFF4F208131818E5B9F4FFC01808164
:100AE0009181281B390B2F733070C9010895FC01C7
:100AF00084859585FC01E05CFF4F40815181FC01BC
:100B0000EE5BFF4F208131814217530741F0019086
:100B1000F081E02DE80FF91F208130E002C02FEFB7
:100B20003FEFC9010895FC0184859585FC01E05CD7
:100B3000FF4F40815181FC01EE5BFF4F20813181ED
:100B40004217530771F0A081B181A80FB91F2C91F2
:100B50008081918101968F7390709183808330E0C2
:100B600002C02FEF3FEFC9010895DC011E968D9161
:100B70009C911F97FC01E05CFF4F8E5B9F4F408173
:100B80005181DC012D913C91119742175307B9F720
:100B900008951F93FC01162F26853785D901A05C87
:100BA000BF4F8D919C91019660E470E00E948C098A
:100BB000D901AE5BBF4F4D915C911197841795079A
:100BC000D1F3D901A05CBF4F0D90BC91A02DA20F15
:100BD000B31F1C93A685B785A05CBF4F11969C934D
:100BE0008E93A689B7892C9181E090E0058C02C094
:100BF000880F991F0A94E2F7282B2C9381E090E04C
:100C00001F910895FB01E05CFF4F208131812F5F30
:100C10003F4F2F733070DB01AE5BBF4F4D915C9146
:100C200011972417350739F0A081B181A60FB71F9E
:100C30008C933183208308951F920F920FB60F92E9
:100C400011242F933F934F935F936F937F938F93D1
:100C50009F93AF93BF93EF93FF938091C60069E991
:100C600071E00E940206FF91EF91BF91AF919F91B9
:100C70008F917F916F915F914F913F912F910F9045
:100C80000FBE0F901F90189581E292E00E946405BC
:100C9000009711F00E94C40108951F920F920FB6A1
:100CA0000F9211242F933F935F936F937F938F93B2
:100CB0009F93AF93BF93EF93FF9320911D023091C9
:100CC0001E0280911F02909120022817390731F4EB
:100CD0008091C1008F7D8093C10016C0E0911F02FA
:100CE000F0912002E352FE4F208180911F029091EB
:100CF0002002019660E470E00E948C09909320022B
:100D000080931F022093C600FF91EF91BF91AF9196
:100D10009F918F917F916F915F913F912F910F9054
:100D20000FBE0F901F901895DF92EF92FF920F93D6
:100D30001F93CF93DF93EC017A018B01DD24D394D1
:100D4000403081EE580780E0680780E0780749F47A
:100D5000DD24EC89FD89108260E874E88EE190E082
:100D60000FC0EC89FD8981E090E00E8C02C0880FF5
:100D7000991F0A94E2F7808360E079E08DE390E0C8
:100D8000A80197010E949F092150304040405040E7
:100D9000569547953795279580E12030380710F014
:100DA000DD20B1F6E889F9893083EA89FB8920835F
:100DB000EE89FF89408181E090E09C010A8C02C0AD
:100DC000220F331F0A94E2F7422B4083EE89FF89FA
:100DD00040819C010B8C02C0220F331F0A94E2F762
:100DE000422B4083EE89FF8940819C010C8C02C01C
:100DF000220F331F0A94E2F7422B4083EE89FF89CA
:100E000020810D8C02C0880F991F0A94E2F780950B
:100E100082238083DF91CF911F910F91FF90EF90FC
:100E2000DF900895109224021092230288EE93E03E
:100E3000A0E0B0E08093250290932602A0932702C1
:100E4000B0932802E3E2F2E082E791E0929382938A
:100E500089E991E0958784878DED91E09787868772
:100E600085EC90E0918B808B84EC90E0938B828B6F
:100E700080EC90E0958B848B81EC90E0978B868B57
:100E800086EC90E0918F808F84E0828F83E0838F67
:100E900087E0848F85E0858F81E0868F0895CF92EB
:100EA000DF92EF92FF920F931F93CF93DF936C012A
:100EB0007B018A01C0E0D0E00FC0D7016D917D01B8
:100EC000D601ED91FC910190F081E02DC6010995CC
:100ED000C80FD91F015010400115110571F7CE013F
:100EE000DF91CF911F910F91FF90EF90DF90CF9006
:100EF0000895DB010D900020E9F7AD01415050400D
:100F0000461B570BDC01ED91FC910280F381E02D33
:100F100009950895DC01ED91FC910190F081E02D9F
:100F2000099508950F931F93CF93DF93EC016DE024
:100F30000E948A078C01CE016AE00E948A07080F8E
:100F4000191FC801DF91CF911F910F9108950F9341
:100F50001F93CF93DF93EC010E9479078C01CE01A0
:100F60000E949207080F191FC801DF91CF911F91AE
:100F70000F910895CF93DF930E940C040E94C80044
:100F8000C4E4D6E00E94C6022097E1F30E94440622
:100F9000F9CF0E94CF0708950E9469080895CF9362
:100FA000DF938230910510F482E090E0E0914202FC
:100FB000F091430240E050E020E030E026C0608144
:100FC000718168177907E0F06817790781F48281E9
:100FD00093812115310531F0D90113969C938E939D
:100FE00012972BC0909343028093420226C0411572
:100FF000510519F06417750718F4AB01E901DF0119
:101000009F0172816381E72FF62F3097C1F641155A
:10101000510501F1481B590B4430510580F41296DB
:101020008D919C911397209719F09B838A8304C01C
:101030009093430280934202FD01329646C0FD0127
:10104000E40FF51F819391934250504011965C93A9
:101050004E933BC020914002309141022115310551
:1010600041F4209165013091660130934102209353
:10107000400220916701309168012115310541F44A
:101080002DB73EB74091630150916401241B350B8D
:10109000E0914002F0914102E217F307A0F42E1B09
:1010A0003F0B2817390778F0AC014E5F5F4F2417CC
:1010B000350748F04E0F5F1F5093410240934002A6
:1010C0008193919302C0E0E0F0E0CF01DF91CF91F6
:1010D0000895CF93DF93009709F491C0FC013297F4
:1010E0001382128260914202709143026115710570
:1010F00081F420813181280F391F80914002909125
:1011000041028217930799F5F0934102E093400260
:1011100076C0DB0180E090E002C0CD01D901AE17BE
:10112000BF0748F412962D913C9113972115310574
:10113000A1F7CD0121C0B383A283EF014991599159
:101140009E01240F351FA217B30779F42D913C910E
:101150001197240F351F2E5F3F4F31832083129646
:101160002D913C91139733832283009729F4F093B8
:101170004302E093420243C0DC011396FC93EE93DA
:1011800012974D915D91A40FB51FEA17FB0769F403
:1011900020813181240F351F2E5F3F4FEC013983B1
:1011A0002883228133813B832A83E0E0F0E002C080
:1011B000FB01BC01DB0112968D919C911397009766
:1011C000B9F79B012E5F3F4F8D919C911197820F34
:1011D000931F40914002509141024817590779F4FA
:1011E000309729F4109243021092420202C01382F7
:1011F0001282225030403093410220934002DF910E
:10120000CF910895A0E0B0E0E8E0F9E00C94E409A3
:10121000EC01688179818A819B8161157105810565
:10122000910521F464E279ED8BE597E02DE133EF50
:1012300041E050E00E94C10979018A0127EA31E4C6
:1012400040E050E00E9459095B016C01C801B70100
:101250002CEE34EF4FEF5FEF0E9459096A0D7B1DB2
:101260008C1D9D1D97FF04C06150704080409048C8
:10127000688379838A839B837F77CB01CDB7DEB781
:10128000EAE00C94000A0E940209089589E691E0C0
:101290000E9402090895A0E0B0E080936901909354
:1012A0006A01A0936B01B0936C010895F8940C94BB
:1012B000190A629FD001739FF001829FE00DF11D1A
:1012C000649FE00DF11D929FF00D839FF00D749FC0
:1012D000F00D659FF00D9927729FB00DE11DF91F6C
:1012E000639FB00DE11DF91FBD01CF0111240895C9
:1012F000AA1BBB1B51E107C0AA1FBB1FA617B7073C
:1013000010F0A61BB70B881F991F5A95A9F7809557
:101310009095BC01CD01089597FB092E07260AD0B0
:1013200077FD04D0E5DF06D000201AF470956195B2
:101330007F4F0895F6F7909581959F4F0895A1E20C
:101340001A2EAA1BBB1BFD010DC0AA1FBB1FEE1F3F
:10135000FF1FA217B307E407F50720F0A21BB30B8A
:10136000E40BF50B661F771F881F991F1A9469F706
:1013700060957095809590959B01AC01BD01CF0162
:10138000089597FB092E05260ED057FD04D0D7DF10
:101390000AD0001C38F450954095309521953F4F68
:1013A0004F4F5F4F0895F6F7909580957095619532
:1013B0007F4F8F4F9F4F08952F923F924F925F9292
:1013C0006F927F928F929F92AF92BF92CF92DF9255
:1013D000EF92FF920F931F93CF93DF93CDB7DEB7BA
:1013E000CA1BDB0B0FB6F894DEBF0FBECDBF09944E
:1013F0002A88398848885F846E847D848C849B84A5
:10140000AA84B984C884DF80EE80FD800C811B81B2
:10141000AA81B981CE0FD11D0FB6F894DEBF0FBEE1
:10142000CDBFED010895EE0FFF1F0590F491E02D63
:10143000099410E0C6ECD0E004C0FE010E94150A39
:0C1440002296C83CD107C9F7F894FFCFF2
:10144C0051554555453A2063616E277420706F7075
:10145C00206974656D2066726F6D20717565756598
:10146C003A20717565756520697320656D707479A6
:10147C002E0051554555453A20696E73756666695F
:10148C006369656E74206D656D6F727920746F2061
:10149C006372656174652061206E6577206E6F6480
:1014AC00652E002000440200000100000001000035
:0E14BC000000C9054F07640593057705B505C7
:00000001FF
