:100000000C9464000C948C000C948C000C948C0068
:100010000C948C000C948C000C948C000C9469064D
:100020000C948C000C948C000C948C000C948C0020
:100030000C948C000C948C000C948C000C948C0010
:100040000C942F020C948C000C94A8030C94D903EC
:100050000C948C000C948C000C948C000C948C00F0
:100060000C948C000C948C000000000024002700ED
:100070002A0000000000250028002B0000000000DE
:1000800023002600290004040404040404040202DA
:100090000202020203030303030301020408102007
:1000A0004080010204081020010204081020000012
:1000B0000007000201000003040600000000000029
:1000C000000025029E042A0211241FBECFEFD8E0B3
:1000D000DEBFCDBF11E0A0E0B1E0E4EDF0E102C091
:1000E00005900D92AA31B107D9F712E0AAE1B1E06B
:1000F00001C01D92AB30B107E1F710E0C6ECD0E0D3
:1001000004C02297FE010E945908C23CD107C9F7DA
:100110000E9405050C94E9070C940000CF93DF932F
:100120008091260190E09C01220F331FC90143E01A
:10013000880F991F4A95E1F7820F931F895D9E4FA3
:100140000E94E3058823F1F08091260190E0880F5A
:10015000991FEC01CE5DDE4FFC0123E0EE0FFF1F87
:100160002A95E1F7E80FF91FE95DFE4F6081718183
:100170008281938122E930E040E050E00E941A0839
:1001800039832883DF91CF910895E0914B01F0915D
:100190004C011082E0914B01F0914C018FEF818373
:1001A000E0914B01F0914C011282E0914B01F091F2
:1001B0004C011482E0914B01F0914C01809122019D
:1001C0008683E0914B01F0914C018091240180875E
:1001D000E0914B01F0914C0184E68287E0914B0164
:1001E000F0914C018487E0914B01F0914C0180919A
:1001F000070190910801E80FF91F32978EEE808376
:10020000E0914B01F0914C01809107019091080120
:10021000E80FF91F3197108260914B0170914C01EA
:10022000409107015091080186EE91E00E94DB04A5
:1002300008958091220190912301009741F080E080
:1002400090E00E94C50086EE91E00E94410308956F
:1002500086EE91E040E052EC61E070E00E94200404
:100260000E947702655B7F4F8F4F9F4F60931A010B
:1002700070931B0180931C0190931D016F5D7F4F54
:100280008F4F9F4F60931E0170931F018093200139
:10029000909321010895CF93DF9386EE91E00E9421
:1002A000F002EC0186EE91E065E00E9455031C1619
:1002B0001D066CF486EE91E00E941F038F3F9105AE
:1002C00021F481E08093060102C010920601DF91C3
:1002D000CF91089580910601882309F45FC00E94A0
:1002E00077029B01AC0180911A0190911B01A091B2
:1002F0001C01B0911D01281739074A075B0710F14F
:100300008E5B9F4FAF4FBF4F80931A0190931B019D
:10031000A0931C01B0931D0180912601813079F0DA
:100320000E94DD05109226011092230110922201F5
:1003300087E291E06EE870E00E945A0603C00E94D6
:100340001901EECF0E9477029B01AC0180911E0142
:1003500090911F01A0912001B09121012817390728
:100360004A075B07D8F08E5B9F4FAF4FBF4F80931C
:100370001E0190931F01A0932001B09321010E94C0
:10038000DD0581E080932601109225011092240161
:1003900089E391E06EE870E00E945A0608950F9399
:1003A0001F93CF93DF93EC010C811D8109C08C81D9
:1003B0009D81FC01028113810E9414051D830C8321
:1003C00001151105A1F71B821A821F821E82198254
:1003D0001882DF91CF911F910F910895813091057F
:1003E00069F587E291E06CE048E024EF31E00E949B
:1003F000170589E391E062E044E024EF31E00E94D8
:100400001705809107019091080161E070E00E945A
:10041000920680934B0190934C01109250011092E0
:100420004F011092520110925101109254011092FA
:10043000530110924E0110924D010895009721F43E
:100440008DE491E00E94CF01089581E090E00E9448
:10045000EE01089580E090E00E94EE0108951F9261
:100460000F920FB60F9211242F933F938F939F9368
:10047000AF93BF938091590190915A01A0915B0174
:10048000B0915C0130915D010196A11DB11D232F3A
:100490002D5F2D3720F02D570196A11DB11D209302
:1004A0005D018093590190935A01A0935B01B09331
:1004B0005C018091550190915601A0915701B09136
:1004C00058010196A11DB11D8093550190935601CD
:1004D000A0935701B0935801BF91AF919F918F9115
:1004E0003F912F910F900FBE0F901F9018958FB7CF
:1004F000F8942091590130915A0140915B0150913B
:100500005C018FBFB901CA0108959FB7F89420918B
:10051000550130915601409157015091580186B5CF
:10052000A89B06C08F3F21F02F5F3F4F4F4F5F4F7B
:100530009FBF542F432F322F2227280F311D411DDB
:10054000511D82E0220F331F441F551F8A95D1F79A
:10055000B901CA010895019739F0880F991F880FD2
:10056000991F02970197F1F70895789484B58260F6
:1005700084BD84B5816084BD85B5826085BD85B547
:10058000816085BDEEE6F0E0808181608083E1E8F6
:10059000F0E010828081826080838081816080832E
:1005A000E0E8F0E0808181608083E1EBF0E0808131
:1005B00084608083E0EBF0E0808181608083EAE703
:1005C000F0E080818460808380818260808380818C
:1005D000816080838081806880831092C10008954B
:1005E000FC0184859585FC01E05CFF4F2081318111
:1005F0008E5B9F4FFC0180819181281B390B2F73EB
:100600003070C9010895FC0184859585FC01E05C8A
:10061000FF4F40815181FC01EE5BFF4F2081318112
:100620004217530741F00190F081E02DE80FF91FC8
:10063000208130E002C02FEF3FEFC9010895FC0197
:1006400084859585FC01E05CFF4F40815181FC0170
:10065000EE5BFF4F208131814217530771F0A0817B
:10066000B181A80FB91F2C918081918101968F7360
:1006700090709183808330E002C02FEF3FEFC9017B
:100680000895DC011E968D919C911F97FC01E05C02
:10069000FF4F8E5B9F4F40815181DC012D913C913A
:1006A000119742175307B9F708951F93FC01162FAE
:1006B00026853785D901A05CBF4F8D919C9101960D
:1006C00060E470E00E940708D901AE5BBF4F4D9116
:1006D0005C91119784179507D1F3D901A05CBF4FA6
:1006E0000D90BC91A02DA20FB31F1C93A685B785BA
:1006F000A05CBF4F11969C938E93A689B7892C91CD
:1007000081E090E0058C02C0880F991F0A94E2F7FF
:10071000282B2C9381E090E01F910895FB01E05C71
:10072000FF4F208131812F5F3F4F2F733070DB01EE
:10073000AE5BBF4F4D915C9111972417350739F08F
:10074000A081B181A60FB71F8C93318320830895B8
:100750001F920F920FB60F9211242F933F934F9336
:100760005F936F937F938F939F93AF93BF93EF9319
:10077000FF938091C6006EE571E00E948E03FF91A9
:10078000EF91BF91AF919F918F917F916F915F9109
:100790004F913F912F910F900FBE0F901F90189582
:1007A00086EE91E00E94F002009711F00E944B014A
:1007B00008951F920F920FB60F9211242F933F931B
:1007C0005F936F937F938F939F93AF93BF93EF93B9
:1007D000FF932091E2013091E3018091E401909137
:1007E000E5012817390731F48091C1008F7D80938E
:1007F000C10016C0E091E401F091E501EE55FE4F15
:1008000020818091E4019091E501019660E470E01F
:100810000E9407089093E5018093E4012093C600AD
:10082000FF91EF91BF91AF919F918F917F916F91C8
:100830005F913F912F910F900FBE0F901F901895D1
:10084000DF92EF92FF920F931F93CF93DF93EC0110
:100850007A018B01DD24D394403081EE580780E08B
:10086000680780E0780749F4DD24EC89FD8910826F
:1008700060E874E88EE190E00FC0EC89FD8981E0CA
:1008800090E00E8C02C0880F991F0A94E2F78083D3
:1008900060E079E08DE390E0A80197010E941A08DA
:1008A0002150304040405040569547953795279508
:1008B00080E12030380710F0DD20B1F6E889F989B1
:1008C0003083EA89FB892083EE89FF89408181E0BA
:1008D00090E09C010A8C02C0220F331F0A94E2F7B9
:1008E000422B4083EE89FF8940819C010B8C02C022
:1008F000220F331F0A94E2F7422B4083EE89FF89CF
:1009000040819C010C8C02C0220F331F0A94E2F735
:10091000422B4083EE89FF8920810D8C02C0880F15
:10092000991F0A94E2F7809582238083DF91CF910B
:100930001F910F91FF90EF90DF9008951092E901C1
:100940001092E80188EE93E0A0E0B0E08093EA0125
:100950009093EB01A093EC01B093ED01E8EEF1E090
:100960008DE091E0929382938EE591E09587848764
:1009700082EA91E09787868785EC90E0918B808B67
:1009800084EC90E0938B828B80EC90E0958B848B51
:1009900081EC90E0978B868B86EC90E0918F808F36
:1009A00084E0828F83E0838F87E0848F85E0858F6A
:1009B00081E0868F0895CF92DF92EF92FF920F939E
:1009C0001F93CF93DF936C017B018A01C0E0D0E0DD
:1009D0000FC0D7016D917D01D601ED91FC91019081
:1009E000F081E02DC6010995C80FD91F01501040B4
:1009F0000115110571F7CE01DF91CF911F910F9174
:100A0000FF90EF90DF90CF900895CF93DF930E94F7
:100A1000B5020E942801C0EDD3E00E946A01209730
:100A2000E1F30E94D003F9CF0E9450070895DC0142
:100A3000862F90E0FC01E656FF4FE4911496EC936C
:100A4000149750E0FA01E656FF4FE4911596EC93A7
:100A500015978A579F4FFC01849190E0880F991F4A
:100A6000FC01EE58FF4F6591749116966C931697A2
:100A700017967C931797FA01EA57FF4FE491F0E03D
:100A8000EE0FFF1FE458FF4F459154911A964C9377
:100A90001A971B965C931B9788599F4FFC014591B1
:100AA000549118964C93189719965C931997F1E006
:100AB000253F3F0714F024EF31E049E350E0249F45
:100AC000C001259F900D349F900D11244C961D96CA
:100AD0009C938E931C970895CF93DF93EC01E88548
:100AE000F98580819C81892B8083EE81FF819081B3
:100AF0008C8180958923808384E090E00E94AB0202
:100B0000EE81FF8180819C81892B80838AE090E047
:100B10000E94AB02EE81FF8190818C8180958923B8
:100B20008083E885F98590818C81809589238083F5
:100B30000E948502605B794B8F4F9F4F6E877F8746
:100B4000888B998BEA85FB8580819D818923D9F0EB
:100B50000E9485029B01AC018E859F85A889B98979
:100B600082179307A407B50768F70DC00E94850296
:100B70009B01AC018E859F85A889B989821793074F
:100B8000A407B507B0F0EA85FB8580819D818923A4
:100B900069F30E9485022C853D8540E050E0620F9C
:100BA000731F841F951F6E877F87888B998B81E0C9
:100BB00001C080E0DF91CF910895E0E7F0E080810F
:100BC0008D7F80830895EF92FF920F931F93CF93B1
:100BD000DF93EC010E9485029B01AC018E859F850D
:100BE000A889B98982179307A407B50718F40E944A
:100BF000DD0525C0EA85FB8580819D818923F9F487
:100C00000E94DD050E9485027B018C018C859D85FB
:100C1000A0E0B0E02E853F8548895989821B930B5F
:100C2000A40BB50B0D97A109B1098E0D9F1DA01F37
:100C3000B11F88839983AA83BB8381E001C080E0D0
:100C4000DF91CF911F910F91FF90EF9008950E9437
:100C5000DD05E6EBF0E080818F7D808382E080938C
:100C6000B00084E08093B1001092B20008950F9319
:100C70001F93CF93DF93EC018B010E942706109303
:100C8000060200930502D695C795D695C79521977C
:100C9000CF3FD10519F010F0CFEFD0E0C093B300F3
:100CA00080917000826080937000DF91CF911F91DE
:100CB0000F910895CF93DF93EB010E946C05882379
:100CC00029F088E190E0BE010E943706DF91CF91C4
:100CD00008951F920F920FB60F9211242F933F93F6
:100CE0004F935F936F937F938F939F93AF93BF9334
:100CF000EF93FF93E0910502F0910602309709F01F
:100D00000995FF91EF91BF91AF919F918F917F9145
:100D10006F915F914F913F912F910F900FBE0F9068
:100D20001F901895EF92FF920F931F93CF93DF932D
:100D3000689F8001699F100D789F100D1124C801D4
:100D40000E94B606E82EE7017E01F92EE701209702
:100D500031F08E2D60E070E0A8010E94EC077E016A
:100D6000CE01CDB7DEB7E6E00C944808CF93DF9311
:100D70008230910510F482E090E0E0910902F09158
:100D80000A0240E050E020E030E026C0608171813E
:100D900068177907E0F06817790781F482819381F9
:100DA0002115310531F0D90113969C938E9312973A
:100DB0002BC090930A028093090226C04115510569
:100DC00019F06417750718F4AB01E901DF019F0101
:100DD00072816381E72FF62F3097C1F641155105D7
:100DE00001F1481B590B4430510580F412968D9146
:100DF0009C911397209719F09B838A8304C090934A
:100E00000A0280930902FD01329646C0FD01E40FFB
:100E1000F51F819391934250504011965C934E93ED
:100E20003BC020910702309108022115310541F4A1
:100E300020910201309103013093080220930702B0
:100E400020910401309105012115310541F42DB7A0
:100E50003EB74091000150910101241B350BE091F8
:100E60000702F0910802E217F307A0F42E1B3F0BD4
:100E70002817390778F0AC014E5F5F4F241735070C
:100E800048F04E0F5F1F5093080240930702819372
:100E9000919302C0E0E0F0E0CF01DF91CF9108959F
:100EA000CF93DF93009709F491C0FC01329713822E
:100EB00012826091090270910A026115710581F434
:100EC00020813181280F391F8091070290910802FB
:100ED0008217930799F5F0930802E093070276C012
:100EE000DB0180E090E002C0CD01D901AE17BF0761
:100EF00048F412962D913C91139721153105A1F7D5
:100F0000CD0121C0B383A283EF01499159919E0184
:100F1000240F351FA217B30779F42D913C91119737
:100F2000240F351F2E5F3F4F3183208312962D9162
:100F30003C91139733832283009729F4F0930A029C
:100F4000E093090243C0DC011396FC93EE931297E1
:100F50004D915D91A40FB51FEA17FB0769F420813D
:100F60003181240F351F2E5F3F4FEC0139832883D9
:100F7000228133813B832A83E0E0F0E002C0FB0161
:100F8000BC01DB0112968D919C9113970097B9F7E4
:100F90009B012E5F3F4F8D919C911197820F931F64
:100FA00040910702509108024817590779F4309789
:100FB00029F410920A021092090202C013821282CE
:100FC000225030403093080220930702DF91CF91E6
:100FD0000895F8940C945D08DC0101C06D934150B4
:100FE0005040E0F70895AA1BBB1B51E107C0AA1FA0
:100FF000BB1FA617B70710F0A61BB70B881F991FBA
:101000005A95A9F780959095BC01CD01089597FB5D
:10101000092E07260AD077FD04D0E5DF06D0002090
:101020001AF4709561957F4F0895F6F79095819524
:101030009F4F0895A1E21A2EAA1BBB1BFD010DC0F4
:10104000AA1FBB1FEE1FFF1FA217B307E407F50778
:1010500020F0A21BB30BE40BF50B661F771F881F54
:10106000991F1A9469F760957095809590959B01EA
:10107000AC01BD01CF0108952A88398848885F8472
:101080006E847D848C849B84AA84B984C884DF8028
:10109000EE80FD800C811B81AA81B981CE0FD11D0C
:1010A0000FB6F894DEBF0FBECDBFED010895EE0F71
:1010B000FF1F0590F491E02D099410E0C6ECD0E0FC
:1010C00004C0FE010E9459082296C83CD107C9F706
:0410D000F894FFCFC2
:1010D40020000B020000011000000000005503DB9B
:0A10E40004F0021F030303410300A0
:00000001FF
